{
  "_format": "hh-sol-artifact-1",
  "contractName": "CarboniumDistribution",
  "sourceName": "contracts/CarboniumDistribution.sol",
  "abi": [
    {
      "inputs": [
        {
          "internalType": "contract IERC20",
          "name": "_token",
          "type": "address"
        }
      ],
      "stateMutability": "nonpayable",
      "type": "constructor"
    },
    {
      "anonymous": false,
      "inputs": [
        {
          "indexed": true,
          "internalType": "address",
          "name": "previousOwner",
          "type": "address"
        },
        {
          "indexed": true,
          "internalType": "address",
          "name": "newOwner",
          "type": "address"
        }
      ],
      "name": "OwnershipTransferred",
      "type": "event"
    },
    {
      "anonymous": false,
      "inputs": [
        {
          "indexed": false,
          "internalType": "address",
          "name": "receiver",
          "type": "address"
        },
        {
          "indexed": false,
          "internalType": "uint256",
          "name": "amount",
          "type": "uint256"
        }
      ],
      "name": "TokenDistributed",
      "type": "event"
    },
    {
      "inputs": [
        {
          "internalType": "address[]",
          "name": "_addresses",
          "type": "address[]"
        },
        {
          "internalType": "uint256[]",
          "name": "_amounts",
          "type": "uint256[]"
        }
      ],
      "name": "distribute",
      "outputs": [],
      "stateMutability": "nonpayable",
      "type": "function"
    },
    {
      "inputs": [],
      "name": "owner",
      "outputs": [
        {
          "internalType": "address",
          "name": "",
          "type": "address"
        }
      ],
      "stateMutability": "view",
      "type": "function"
    },
    {
      "inputs": [],
      "name": "renounceOwnership",
      "outputs": [],
      "stateMutability": "nonpayable",
      "type": "function"
    },
    {
      "inputs": [
        {
          "internalType": "address",
          "name": "newOwner",
          "type": "address"
        }
      ],
      "name": "transferOwnership",
      "outputs": [],
      "stateMutability": "nonpayable",
      "type": "function"
    }
  ],
  "bytecode": "0x608060405234801561001057600080fd5b5060405162000e3738038062000e3783398181016040528101906100349190610178565b61005061004561009760201b60201c565b61009f60201b60201c565b80600160006101000a81548173ffffffffffffffffffffffffffffffffffffffff021916908373ffffffffffffffffffffffffffffffffffffffff160217905550506101fc565b600033905090565b60008060009054906101000a900473ffffffffffffffffffffffffffffffffffffffff169050816000806101000a81548173ffffffffffffffffffffffffffffffffffffffff021916908373ffffffffffffffffffffffffffffffffffffffff1602179055508173ffffffffffffffffffffffffffffffffffffffff168173ffffffffffffffffffffffffffffffffffffffff167f8be0079c531659141344cd1fd0a4f28419497f9722a3daafe3b4186f6b6457e060405160405180910390a35050565b600081519050610172816101e5565b92915050565b60006020828403121561018a57600080fd5b600061019884828501610163565b91505092915050565b60006101ac826101c5565b9050919050565b60006101be826101a1565b9050919050565b600073ffffffffffffffffffffffffffffffffffffffff82169050919050565b6101ee816101b3565b81146101f957600080fd5b50565b610c2b806200020c6000396000f3fe608060405234801561001057600080fd5b506004361061004c5760003560e01c80632929abe614610051578063715018a61461006d5780638da5cb5b14610077578063f2fde38b14610095575b600080fd5b61006b6004803603810190610066919061079d565b6100b1565b005b610075610394565b005b61007f61041c565b60405161008c919061095c565b60405180910390f35b6100af60048036038101906100aa9190610774565b610445565b005b6100b961053d565b73ffffffffffffffffffffffffffffffffffffffff166100d761041c565b73ffffffffffffffffffffffffffffffffffffffff161461012d576040517f08c379a0000000000000000000000000000000000000000000000000000000008152600401610124906109f7565b60405180910390fd5b8051825114610171576040517f08c379a000000000000000000000000000000000000000000000000000000000815260040161016890610a17565b60405180910390fd5b60005b82518161ffff16101561038f57600160009054906101000a900473ffffffffffffffffffffffffffffffffffffffff1673ffffffffffffffffffffffffffffffffffffffff166323b872dd33858461ffff16815181106101fd577f4e487b7100000000000000000000000000000000000000000000000000000000600052603260045260246000fd5b6020026020010151858561ffff1681518110610242577f4e487b7100000000000000000000000000000000000000000000000000000000600052603260045260246000fd5b60200260200101516040518463ffffffff1660e01b815260040161026893929190610977565b602060405180830381600087803b15801561028257600080fd5b505af1158015610296573d6000803e3d6000fd5b505050506040513d601f19601f820116820180604052508101906102ba9190610809565b507ff6f55ada4fbb9e2bc6813f97e749a30067f3c13a200ce783269b50e6419e8f64838261ffff1681518110610319577f4e487b7100000000000000000000000000000000000000000000000000000000600052603260045260246000fd5b6020026020010151838361ffff168151811061035e577f4e487b7100000000000000000000000000000000000000000000000000000000600052603260045260246000fd5b60200260200101516040516103749291906109ae565b60405180910390a1808061038790610b27565b915050610174565b505050565b61039c61053d565b73ffffffffffffffffffffffffffffffffffffffff166103ba61041c565b73ffffffffffffffffffffffffffffffffffffffff1614610410576040517f08c379a0000000000000000000000000000000000000000000000000000000008152600401610407906109f7565b60405180910390fd5b61041a6000610545565b565b60008060009054906101000a900473ffffffffffffffffffffffffffffffffffffffff16905090565b61044d61053d565b73ffffffffffffffffffffffffffffffffffffffff1661046b61041c565b73ffffffffffffffffffffffffffffffffffffffff16146104c1576040517f08c379a00000000000000000000000000000000000000000000000000000000081526004016104b8906109f7565b60405180910390fd5b600073ffffffffffffffffffffffffffffffffffffffff168173ffffffffffffffffffffffffffffffffffffffff161415610531576040517f08c379a0000000000000000000000000000000000000000000000000000000008152600401610528906109d7565b60405180910390fd5b61053a81610545565b50565b600033905090565b60008060009054906101000a900473ffffffffffffffffffffffffffffffffffffffff169050816000806101000a81548173ffffffffffffffffffffffffffffffffffffffff021916908373ffffffffffffffffffffffffffffffffffffffff1602179055508173ffffffffffffffffffffffffffffffffffffffff168173ffffffffffffffffffffffffffffffffffffffff167f8be0079c531659141344cd1fd0a4f28419497f9722a3daafe3b4186f6b6457e060405160405180910390a35050565b600061061c61061784610a68565b610a37565b9050808382526020820190508285602086028201111561063b57600080fd5b60005b8581101561066b578161065188826106e1565b84526020840193506020830192505060018101905061063e565b5050509392505050565b600061068861068384610a94565b610a37565b905080838252602082019050828560208602820111156106a757600080fd5b60005b858110156106d757816106bd888261075f565b8452602084019350602083019250506001810190506106aa565b5050509392505050565b6000813590506106f081610bb0565b92915050565b600082601f83011261070757600080fd5b8135610717848260208601610609565b91505092915050565b600082601f83011261073157600080fd5b8135610741848260208601610675565b91505092915050565b60008151905061075981610bc7565b92915050565b60008135905061076e81610bde565b92915050565b60006020828403121561078657600080fd5b6000610794848285016106e1565b91505092915050565b600080604083850312156107b057600080fd5b600083013567ffffffffffffffff8111156107ca57600080fd5b6107d6858286016106f6565b925050602083013567ffffffffffffffff8111156107f357600080fd5b6107ff85828601610720565b9150509250929050565b60006020828403121561081b57600080fd5b60006108298482850161074a565b91505092915050565b61083b81610ad1565b82525050565b600061084e602683610ac0565b91507f4f776e61626c653a206e6577206f776e657220697320746865207a65726f206160008301527f64647265737300000000000000000000000000000000000000000000000000006020830152604082019050919050565b60006108b4602083610ac0565b91507f4f776e61626c653a2063616c6c6572206973206e6f7420746865206f776e65726000830152602082019050919050565b60006108f4603883610ac0565b91507f4c656e677468206f6620616464726573736573206973206e6f7420746865207360008301527f616d65206173206c656e677468206f6620616d6f756e747300000000000000006020830152604082019050919050565b61095681610b1d565b82525050565b60006020820190506109716000830184610832565b92915050565b600060608201905061098c6000830186610832565b6109996020830185610832565b6109a6604083018461094d565b949350505050565b60006040820190506109c36000830185610832565b6109d0602083018461094d565b9392505050565b600060208201905081810360008301526109f081610841565b9050919050565b60006020820190508181036000830152610a10816108a7565b9050919050565b60006020820190508181036000830152610a30816108e7565b9050919050565b6000604051905081810181811067ffffffffffffffff82111715610a5e57610a5d610b81565b5b8060405250919050565b600067ffffffffffffffff821115610a8357610a82610b81565b5b602082029050602081019050919050565b600067ffffffffffffffff821115610aaf57610aae610b81565b5b602082029050602081019050919050565b600082825260208201905092915050565b6000610adc82610afd565b9050919050565b60008115159050919050565b600061ffff82169050919050565b600073ffffffffffffffffffffffffffffffffffffffff82169050919050565b6000819050919050565b6000610b3282610aef565b915061ffff821415610b4757610b46610b52565b5b600182019050919050565b7f4e487b7100000000000000000000000000000000000000000000000000000000600052601160045260246000fd5b7f4e487b7100000000000000000000000000000000000000000000000000000000600052604160045260246000fd5b610bb981610ad1565b8114610bc457600080fd5b50565b610bd081610ae3565b8114610bdb57600080fd5b50565b610be781610b1d565b8114610bf257600080fd5b5056fea264697066735822122094bf041fb9c8f3c3e6d9dde120e579773319cdbc793be2e02320906dea5fc12964736f6c63430008000033",
  "linkReferences": {},
  "deployedLinkReferences": {}
}