{
  "_format": "hh-sol-artifact-1",
  "contractName": "ParcelContract",
  "sourceName": "contracts/ParcelContract.sol",
  "abi": [
    {
      "inputs": [],
      "stateMutability": "nonpayable",
      "type": "constructor"
    },
    {
      "anonymous": false,
      "inputs": [
        {
          "indexed": true,
          "internalType": "address",
          "name": "owner",
          "type": "address"
        },
        {
          "indexed": true,
          "internalType": "address",
          "name": "approved",
          "type": "address"
        },
        {
          "indexed": true,
          "internalType": "uint256",
          "name": "tokenId",
          "type": "uint256"
        }
      ],
      "name": "Approval",
      "type": "event"
    },
    {
      "anonymous": false,
      "inputs": [
        {
          "indexed": true,
          "internalType": "address",
          "name": "owner",
          "type": "address"
        },
        {
          "indexed": true,
          "internalType": "address",
          "name": "operator",
          "type": "address"
        },
        {
          "indexed": false,
          "internalType": "bool",
          "name": "approved",
          "type": "bool"
        }
      ],
      "name": "ApprovalForAll",
      "type": "event"
    },
    {
      "anonymous": false,
      "inputs": [
        {
          "indexed": true,
          "internalType": "address",
          "name": "previousOwner",
          "type": "address"
        },
        {
          "indexed": true,
          "internalType": "address",
          "name": "newOwner",
          "type": "address"
        }
      ],
      "name": "OwnershipTransferred",
      "type": "event"
    },
    {
      "anonymous": false,
      "inputs": [
        {
          "indexed": true,
          "internalType": "address",
          "name": "from",
          "type": "address"
        },
        {
          "indexed": true,
          "internalType": "address",
          "name": "to",
          "type": "address"
        },
        {
          "indexed": true,
          "internalType": "uint256",
          "name": "tokenId",
          "type": "uint256"
        }
      ],
      "name": "Transfer",
      "type": "event"
    },
    {
      "inputs": [],
      "name": "_tokenIds",
      "outputs": [
        {
          "internalType": "uint256",
          "name": "_value",
          "type": "uint256"
        }
      ],
      "stateMutability": "view",
      "type": "function"
    },
    {
      "inputs": [
        {
          "internalType": "address",
          "name": "to",
          "type": "address"
        },
        {
          "internalType": "uint256",
          "name": "tokenId",
          "type": "uint256"
        }
      ],
      "name": "approve",
      "outputs": [],
      "stateMutability": "nonpayable",
      "type": "function"
    },
    {
      "inputs": [
        {
          "internalType": "address",
          "name": "owner",
          "type": "address"
        }
      ],
      "name": "balanceOf",
      "outputs": [
        {
          "internalType": "uint256",
          "name": "",
          "type": "uint256"
        }
      ],
      "stateMutability": "view",
      "type": "function"
    },
    {
      "inputs": [],
      "name": "baseURI",
      "outputs": [
        {
          "internalType": "string",
          "name": "",
          "type": "string"
        }
      ],
      "stateMutability": "view",
      "type": "function"
    },
    {
      "inputs": [
        {
          "internalType": "uint256",
          "name": "tokenId",
          "type": "uint256"
        }
      ],
      "name": "getApproved",
      "outputs": [
        {
          "internalType": "address",
          "name": "",
          "type": "address"
        }
      ],
      "stateMutability": "view",
      "type": "function"
    },
    {
      "inputs": [],
      "name": "getMaxParcels",
      "outputs": [
        {
          "internalType": "uint256",
          "name": "",
          "type": "uint256"
        }
      ],
      "stateMutability": "pure",
      "type": "function"
    },
    {
      "inputs": [],
      "name": "getRandomUnusedTokenId",
      "outputs": [
        {
          "internalType": "uint256",
          "name": "",
          "type": "uint256"
        }
      ],
      "stateMutability": "view",
      "type": "function"
    },
    {
      "inputs": [
        {
          "internalType": "address",
          "name": "_to",
          "type": "address"
        },
        {
          "internalType": "uint256",
          "name": "_count",
          "type": "uint256"
        }
      ],
      "name": "grant",
      "outputs": [],
      "stateMutability": "nonpayable",
      "type": "function"
    },
    {
      "inputs": [
        {
          "internalType": "address",
          "name": "_to",
          "type": "address"
        },
        {
          "internalType": "uint256",
          "name": "_tokenId",
          "type": "uint256"
        }
      ],
      "name": "grantOne",
      "outputs": [],
      "stateMutability": "nonpayable",
      "type": "function"
    },
    {
      "inputs": [
        {
          "internalType": "address",
          "name": "owner",
          "type": "address"
        },
        {
          "internalType": "address",
          "name": "operator",
          "type": "address"
        }
      ],
      "name": "isApprovedForAll",
      "outputs": [
        {
          "internalType": "bool",
          "name": "",
          "type": "bool"
        }
      ],
      "stateMutability": "view",
      "type": "function"
    },
    {
      "inputs": [
        {
          "internalType": "address",
          "name": "to",
          "type": "address"
        }
      ],
      "name": "mint",
      "outputs": [
        {
          "internalType": "uint256",
          "name": "",
          "type": "uint256"
        }
      ],
      "stateMutability": "nonpayable",
      "type": "function"
    },
    {
      "inputs": [],
      "name": "name",
      "outputs": [
        {
          "internalType": "string",
          "name": "",
          "type": "string"
        }
      ],
      "stateMutability": "view",
      "type": "function"
    },
    {
      "inputs": [],
      "name": "owner",
      "outputs": [
        {
          "internalType": "address",
          "name": "",
          "type": "address"
        }
      ],
      "stateMutability": "view",
      "type": "function"
    },
    {
      "inputs": [
        {
          "internalType": "uint256",
          "name": "tokenId",
          "type": "uint256"
        }
      ],
      "name": "ownerOf",
      "outputs": [
        {
          "internalType": "address",
          "name": "",
          "type": "address"
        }
      ],
      "stateMutability": "view",
      "type": "function"
    },
    {
      "inputs": [],
      "name": "renounceOwnership",
      "outputs": [],
      "stateMutability": "nonpayable",
      "type": "function"
    },
    {
      "inputs": [
        {
          "internalType": "address",
          "name": "from",
          "type": "address"
        },
        {
          "internalType": "address",
          "name": "to",
          "type": "address"
        },
        {
          "internalType": "uint256",
          "name": "tokenId",
          "type": "uint256"
        }
      ],
      "name": "safeTransferFrom",
      "outputs": [],
      "stateMutability": "nonpayable",
      "type": "function"
    },
    {
      "inputs": [
        {
          "internalType": "address",
          "name": "from",
          "type": "address"
        },
        {
          "internalType": "address",
          "name": "to",
          "type": "address"
        },
        {
          "internalType": "uint256",
          "name": "tokenId",
          "type": "uint256"
        },
        {
          "internalType": "bytes",
          "name": "_data",
          "type": "bytes"
        }
      ],
      "name": "safeTransferFrom",
      "outputs": [],
      "stateMutability": "nonpayable",
      "type": "function"
    },
    {
      "inputs": [
        {
          "internalType": "address",
          "name": "operator",
          "type": "address"
        },
        {
          "internalType": "bool",
          "name": "approved",
          "type": "bool"
        }
      ],
      "name": "setApprovalForAll",
      "outputs": [],
      "stateMutability": "nonpayable",
      "type": "function"
    },
    {
      "inputs": [
        {
          "internalType": "string",
          "name": "_baseURIParam",
          "type": "string"
        }
      ],
      "name": "setBaseURI",
      "outputs": [],
      "stateMutability": "nonpayable",
      "type": "function"
    },
    {
      "inputs": [
        {
          "internalType": "bytes4",
          "name": "interfaceId",
          "type": "bytes4"
        }
      ],
      "name": "supportsInterface",
      "outputs": [
        {
          "internalType": "bool",
          "name": "",
          "type": "bool"
        }
      ],
      "stateMutability": "view",
      "type": "function"
    },
    {
      "inputs": [],
      "name": "symbol",
      "outputs": [
        {
          "internalType": "string",
          "name": "",
          "type": "string"
        }
      ],
      "stateMutability": "view",
      "type": "function"
    },
    {
      "inputs": [
        {
          "internalType": "uint256",
          "name": "tokenId",
          "type": "uint256"
        }
      ],
      "name": "tokenURI",
      "outputs": [
        {
          "internalType": "string",
          "name": "",
          "type": "string"
        }
      ],
      "stateMutability": "view",
      "type": "function"
    },
    {
      "inputs": [
        {
          "internalType": "address",
          "name": "from",
          "type": "address"
        },
        {
          "internalType": "address",
          "name": "to",
          "type": "address"
        },
        {
          "internalType": "uint256",
          "name": "tokenId",
          "type": "uint256"
        }
      ],
      "name": "transferFrom",
      "outputs": [],
      "stateMutability": "nonpayable",
      "type": "function"
    },
    {
      "inputs": [
        {
          "internalType": "address",
          "name": "newOwner",
          "type": "address"
        }
      ],
      "name": "transferOwnership",
      "outputs": [],
      "stateMutability": "nonpayable",
      "type": "function"
    }
  ],
  "bytecode": "0x608060405260405180606001604052806035815260200162004136603591396008908051906020019062000035929190620007f7565b5060006009553480156200004857600080fd5b506040518060400160405280600681526020017f50617263656c00000000000000000000000000000000000000000000000000008152506040518060400160405280600381526020017f50415200000000000000000000000000000000000000000000000000000000008152508160009080519060200190620000cd929190620007f7565b508060019080519060200190620000e6929190620007f7565b50505062000109620000fd6200014560201b60201c565b6200014d60201b60201c565b60005b60328110156200013e5762000127336200021360201b60201c565b508080620001359062000cb7565b9150506200010c565b5062000d8e565b600033905090565b6000600660009054906101000a900473ffffffffffffffffffffffffffffffffffffffff16905081600660006101000a81548173ffffffffffffffffffffffffffffffffffffffff021916908373ffffffffffffffffffffffffffffffffffffffff1602179055508173ffffffffffffffffffffffffffffffffffffffff168173ffffffffffffffffffffffffffffffffffffffff167f8be0079c531659141344cd1fd0a4f28419497f9722a3daafe3b4186f6b6457e060405160405180910390a35050565b6000620002256200014560201b60201c565b73ffffffffffffffffffffffffffffffffffffffff166200024b620002f160201b60201c565b73ffffffffffffffffffffffffffffffffffffffff1614620002a4576040517f08c379a00000000000000000000000000000000000000000000000000000000081526004016200029b9062000b35565b60405180910390fd5b6000620002bd60076200031b60201b620012431760201c565b9050620002d183826200032960201b60201c565b620002e860076200034f60201b620012511760201c565b80915050919050565b6000600660009054906101000a900473ffffffffffffffffffffffffffffffffffffffff16905090565b600081600001549050919050565b6200034b8282604051806020016040528060008152506200036560201b60201c565b5050565b6001816000016000828254019250508190555050565b620003778383620003d360201b60201c565b6200038c6000848484620005b960201b60201c565b620003ce576040517f08c379a0000000000000000000000000000000000000000000000000000000008152600401620003c59062000acf565b60405180910390fd5b505050565b600073ffffffffffffffffffffffffffffffffffffffff168273ffffffffffffffffffffffffffffffffffffffff16141562000446576040517f08c379a00000000000000000000000000000000000000000000000000000000081526004016200043d9062000b13565b60405180910390fd5b62000457816200077360201b60201c565b156200049a576040517f08c379a0000000000000000000000000000000000000000000000000000000008152600401620004919062000af1565b60405180910390fd5b620004ae60008383620007df60201b60201c565b6001600360008473ffffffffffffffffffffffffffffffffffffffff1673ffffffffffffffffffffffffffffffffffffffff168152602001908152602001600020600082825462000500919062000b84565b92505081905550816002600083815260200190815260200160002060006101000a81548173ffffffffffffffffffffffffffffffffffffffff021916908373ffffffffffffffffffffffffffffffffffffffff160217905550808273ffffffffffffffffffffffffffffffffffffffff16600073ffffffffffffffffffffffffffffffffffffffff167fddf252ad1be2c89b69c2b068fc378daa952ba7f163c4a11628f55a4df523b3ef60405160405180910390a45050565b6000620005e78473ffffffffffffffffffffffffffffffffffffffff16620007e460201b620012671760201c565b1562000766578373ffffffffffffffffffffffffffffffffffffffff1663150b7a02620006196200014560201b60201c565b8786866040518563ffffffff1660e01b81526004016200063d949392919062000a7b565b602060405180830381600087803b1580156200065857600080fd5b505af19250505080156200068c57506040513d601f19601f82011682018060405250810190620006899190620008be565b60015b62000715573d8060008114620006bf576040519150601f19603f3d011682016040523d82523d6000602084013e620006c4565b606091505b506000815114156200070d576040517f08c379a0000000000000000000000000000000000000000000000000000000008152600401620007049062000acf565b60405180910390fd5b805181602001fd5b63150b7a0260e01b7bffffffffffffffffffffffffffffffffffffffffffffffffffffffff1916817bffffffffffffffffffffffffffffffffffffffffffffffffffffffff1916149150506200076b565b600190505b949350505050565b60008073ffffffffffffffffffffffffffffffffffffffff166002600084815260200190815260200160002060009054906101000a900473ffffffffffffffffffffffffffffffffffffffff1673ffffffffffffffffffffffffffffffffffffffff1614159050919050565b505050565b600080823b905060008111915050919050565b828054620008059062000c81565b90600052602060002090601f01602090048101928262000829576000855562000875565b82601f106200084457805160ff191683800117855562000875565b8280016001018555821562000875579182015b828111156200087457825182559160200191906001019062000857565b5b50905062000884919062000888565b5090565b5b80821115620008a357600081600090555060010162000889565b5090565b600081519050620008b88162000d74565b92915050565b600060208284031215620008d157600080fd5b6000620008e184828501620008a7565b91505092915050565b620008f58162000be1565b82525050565b6000620009088262000b57565b62000914818562000b62565b93506200092681856020860162000c4b565b620009318162000d63565b840191505092915050565b60006200094b60328362000b73565b91507f4552433732313a207472616e7366657220746f206e6f6e20455243373231526560008301527f63656976657220696d706c656d656e74657200000000000000000000000000006020830152604082019050919050565b6000620009b3601c8362000b73565b91507f4552433732313a20746f6b656e20616c7265616479206d696e746564000000006000830152602082019050919050565b6000620009f560208362000b73565b91507f4552433732313a206d696e7420746f20746865207a65726f20616464726573736000830152602082019050919050565b600062000a3760208362000b73565b91507f4f776e61626c653a2063616c6c6572206973206e6f7420746865206f776e65726000830152602082019050919050565b62000a758162000c41565b82525050565b600060808201905062000a926000830187620008ea565b62000aa16020830186620008ea565b62000ab0604083018562000a6a565b818103606083015262000ac48184620008fb565b905095945050505050565b6000602082019050818103600083015262000aea816200093c565b9050919050565b6000602082019050818103600083015262000b0c81620009a4565b9050919050565b6000602082019050818103600083015262000b2e81620009e6565b9050919050565b6000602082019050818103600083015262000b508162000a28565b9050919050565b600081519050919050565b600082825260208201905092915050565b600082825260208201905092915050565b600062000b918262000c41565b915062000b9e8362000c41565b9250827fffffffffffffffffffffffffffffffffffffffffffffffffffffffffffffffff0382111562000bd65762000bd562000d05565b5b828201905092915050565b600062000bee8262000c21565b9050919050565b60007fffffffff0000000000000000000000000000000000000000000000000000000082169050919050565b600073ffffffffffffffffffffffffffffffffffffffff82169050919050565b6000819050919050565b60005b8381101562000c6b57808201518184015260208101905062000c4e565b8381111562000c7b576000848401525b50505050565b6000600282049050600182168062000c9a57607f821691505b6020821081141562000cb15762000cb062000d34565b5b50919050565b600062000cc48262000c41565b91507fffffffffffffffffffffffffffffffffffffffffffffffffffffffffffffffff82141562000cfa5762000cf962000d05565b5b600182019050919050565b7f4e487b7100000000000000000000000000000000000000000000000000000000600052601160045260246000fd5b7f4e487b7100000000000000000000000000000000000000000000000000000000600052602260045260246000fd5b6000601f19601f8301169050919050565b62000d7f8162000bf5565b811462000d8b57600080fd5b50565b6133988062000d9e6000396000f3fe608060405234801561001057600080fd5b50600436106101585760003560e01c806370a08231116100c3578063aa46a4001161007c578063aa46a400146103b1578063b88d4fde146103cf578063bb7cde46146103eb578063c87b56dd14610409578063e985e9c514610439578063f2fde38b1461046957610158565b806370a0823114610301578063715018a6146103315780638da5cb5b1461033b57806395d89b4114610359578063a1177cd014610377578063a22cb4651461039557610158565b806355f804b31161011557806355f804b31461022f5780636352211e1461024b5780636370920e1461027b5780636a627842146102975780636c0360eb146102c75780636f51faab146102e557610158565b806301ffc9a71461015d57806306fdde031461018d578063081812fc146101ab578063095ea7b3146101db57806323b872dd146101f757806342842e0e14610213575b600080fd5b6101776004803603810190610172919061237f565b610485565b6040516101849190612c75565b60405180910390f35b610195610567565b6040516101a29190612c90565b60405180910390f35b6101c560048036038101906101c09190612412565b6105f9565b6040516101d29190612c0e565b60405180910390f35b6101f560048036038101906101f09190612343565b61067e565b005b610211600480360381019061020c919061223d565b610796565b005b61022d6004803603810190610228919061223d565b6107f6565b005b610249600480360381019061024491906123d1565b610816565b005b61026560048036038101906102609190612412565b6108ac565b6040516102729190612c0e565b60405180910390f35b61029560048036038101906102909190612343565b61095e565b005b6102b160048036038101906102ac91906121d8565b610ad4565b6040516102be9190612ef2565b60405180910390f35b6102cf610b7d565b6040516102dc9190612c90565b60405180910390f35b6102ff60048036038101906102fa9190612343565b610c0b565b005b61031b600480360381019061031691906121d8565b610cae565b6040516103289190612ef2565b60405180910390f35b610339610d66565b005b610343610dee565b6040516103509190612c0e565b60405180910390f35b610361610e18565b60405161036e9190612c90565b60405180910390f35b61037f610eaa565b60405161038c9190612ef2565b60405180910390f35b6103af60048036038101906103aa9190612307565b610eb3565b005b6103b9610ec9565b6040516103c69190612ef2565b60405180910390f35b6103e960048036038101906103e4919061228c565b610ed5565b005b6103f3610f37565b6040516104009190612ef2565b60405180910390f35b610423600480360381019061041e9190612412565b611010565b6040516104309190612c90565b60405180910390f35b610453600480360381019061044e9190612201565b6110b7565b6040516104609190612c75565b60405180910390f35b610483600480360381019061047e91906121d8565b61114b565b005b60007f80ac58cd000000000000000000000000000000000000000000000000000000007bffffffffffffffffffffffffffffffffffffffffffffffffffffffff1916827bffffffffffffffffffffffffffffffffffffffffffffffffffffffff1916148061055057507f5b5e139f000000000000000000000000000000000000000000000000000000007bffffffffffffffffffffffffffffffffffffffffffffffffffffffff1916827bffffffffffffffffffffffffffffffffffffffffffffffffffffffff1916145b80610560575061055f8261127a565b5b9050919050565b60606000805461057690613152565b80601f01602080910402602001604051908101604052809291908181526020018280546105a290613152565b80156105ef5780601f106105c4576101008083540402835291602001916105ef565b820191906000526020600020905b8154815290600101906020018083116105d257829003601f168201915b5050505050905090565b6000610604826112e4565b610643576040517f08c379a000000000000000000000000000000000000000000000000000000000815260040161063a90612e32565b60405180910390fd5b6004600083815260200190815260200160002060009054906101000a900473ffffffffffffffffffffffffffffffffffffffff169050919050565b6000610689826108ac565b90508073ffffffffffffffffffffffffffffffffffffffff168373ffffffffffffffffffffffffffffffffffffffff1614156106fa576040517f08c379a00000000000000000000000000000000000000000000000000000000081526004016106f190612eb2565b60405180910390fd5b8073ffffffffffffffffffffffffffffffffffffffff16610719611350565b73ffffffffffffffffffffffffffffffffffffffff161480610748575061074781610742611350565b6110b7565b5b610787576040517f08c379a000000000000000000000000000000000000000000000000000000000815260040161077e90612d92565b60405180910390fd5b6107918383611358565b505050565b6107a76107a1611350565b82611411565b6107e6576040517f08c379a00000000000000000000000000000000000000000000000000000000081526004016107dd90612ed2565b60405180910390fd5b6107f18383836114ef565b505050565b61081183838360405180602001604052806000815250610ed5565b505050565b61081e611350565b73ffffffffffffffffffffffffffffffffffffffff1661083c610dee565b73ffffffffffffffffffffffffffffffffffffffff1614610892576040517f08c379a000000000000000000000000000000000000000000000000000000000815260040161088990612e52565b60405180910390fd5b80600890805190602001906108a8929190611ffc565b5050565b6000806002600084815260200190815260200160002060009054906101000a900473ffffffffffffffffffffffffffffffffffffffff169050600073ffffffffffffffffffffffffffffffffffffffff168173ffffffffffffffffffffffffffffffffffffffff161415610955576040517f08c379a000000000000000000000000000000000000000000000000000000000815260040161094c90612dd2565b60405180910390fd5b80915050919050565b610966611350565b73ffffffffffffffffffffffffffffffffffffffff16610984610dee565b73ffffffffffffffffffffffffffffffffffffffff16146109da576040517f08c379a00000000000000000000000000000000000000000000000000000000081526004016109d190612e52565b60405180910390fd5b600073ffffffffffffffffffffffffffffffffffffffff168273ffffffffffffffffffffffffffffffffffffffff161415610a4a576040517f08c379a0000000000000000000000000000000000000000000000000000000008152600401610a4190612cb2565b60405180910390fd5b806032610a579190613068565b60095410610a9a576040517f08c379a0000000000000000000000000000000000000000000000000000000008152600401610a9190612df2565b60405180910390fd5b60005b81811015610acf576000610aaf610f37565b9050610abb8482610c0b565b508080610ac790613184565b915050610a9d565b505050565b6000610ade611350565b73ffffffffffffffffffffffffffffffffffffffff16610afc610dee565b73ffffffffffffffffffffffffffffffffffffffff1614610b52576040517f08c379a0000000000000000000000000000000000000000000000000000000008152600401610b4990612e52565b60405180910390fd5b6000610b5e6007611243565b9050610b6a838261174b565b610b746007611251565b80915050919050565b60088054610b8a90613152565b80601f0160208091040260200160405190810160405280929190818152602001828054610bb690613152565b8015610c035780601f10610bd857610100808354040283529160200191610c03565b820191906000526020600020905b815481529060010190602001808311610be657829003601f168201915b505050505081565b610c13611350565b73ffffffffffffffffffffffffffffffffffffffff16610c31610dee565b73ffffffffffffffffffffffffffffffffffffffff1614610c87576040517f08c379a0000000000000000000000000000000000000000000000000000000008152600401610c7e90612e52565b60405180910390fd5b610c923383836107f6565b60096000815480929190610ca590613184565b91905055505050565b60008073ffffffffffffffffffffffffffffffffffffffff168273ffffffffffffffffffffffffffffffffffffffff161415610d1f576040517f08c379a0000000000000000000000000000000000000000000000000000000008152600401610d1690612db2565b60405180910390fd5b600360008373ffffffffffffffffffffffffffffffffffffffff1673ffffffffffffffffffffffffffffffffffffffff168152602001908152602001600020549050919050565b610d6e611350565b73ffffffffffffffffffffffffffffffffffffffff16610d8c610dee565b73ffffffffffffffffffffffffffffffffffffffff1614610de2576040517f08c379a0000000000000000000000000000000000000000000000000000000008152600401610dd990612e52565b60405180910390fd5b610dec6000611769565b565b6000600660009054906101000a900473ffffffffffffffffffffffffffffffffffffffff16905090565b606060018054610e2790613152565b80601f0160208091040260200160405190810160405280929190818152602001828054610e5390613152565b8015610ea05780601f10610e7557610100808354040283529160200191610ea0565b820191906000526020600020905b815481529060010190602001808311610e8357829003601f168201915b5050505050905090565b60006032905090565b610ec5610ebe611350565b838361182f565b5050565b60078060000154905081565b610ee6610ee0611350565b83611411565b610f25576040517f08c379a0000000000000000000000000000000000000000000000000000000008152600401610f1c90612ed2565b60405180910390fd5b610f318484848461199c565b50505050565b60008060323342604051602001610f4f929190612b81565b6040516020818303038152906040528051906020012060001c610f7291906131fb565b905060005b610f7f610dee565b73ffffffffffffffffffffffffffffffffffffffff16610f9e836108ac565b73ffffffffffffffffffffffffffffffffffffffff1614611008576032334283604051602001610fd093929190612bad565b6040516020818303038152906040528051906020012060001c610ff391906131fb565b9150808061100090613184565b915050610f77565b819250505090565b606061101b826112e4565b61105a576040517f08c379a000000000000000000000000000000000000000000000000000000000815260040161105190612e92565b60405180910390fd5b60006110646119f8565b9050600081511161108457604051806020016040528060008152506110af565b8061108e84611a8a565b60405160200161109f929190612bea565b6040516020818303038152906040525b915050919050565b6000600560008473ffffffffffffffffffffffffffffffffffffffff1673ffffffffffffffffffffffffffffffffffffffff16815260200190815260200160002060008373ffffffffffffffffffffffffffffffffffffffff1673ffffffffffffffffffffffffffffffffffffffff16815260200190815260200160002060009054906101000a900460ff16905092915050565b611153611350565b73ffffffffffffffffffffffffffffffffffffffff16611171610dee565b73ffffffffffffffffffffffffffffffffffffffff16146111c7576040517f08c379a00000000000000000000000000000000000000000000000000000000081526004016111be90612e52565b60405180910390fd5b600073ffffffffffffffffffffffffffffffffffffffff168173ffffffffffffffffffffffffffffffffffffffff161415611237576040517f08c379a000000000000000000000000000000000000000000000000000000000815260040161122e90612cf2565b60405180910390fd5b61124081611769565b50565b600081600001549050919050565b6001816000016000828254019250508190555050565b600080823b905060008111915050919050565b60007f01ffc9a7000000000000000000000000000000000000000000000000000000007bffffffffffffffffffffffffffffffffffffffffffffffffffffffff1916827bffffffffffffffffffffffffffffffffffffffffffffffffffffffff1916149050919050565b60008073ffffffffffffffffffffffffffffffffffffffff166002600084815260200190815260200160002060009054906101000a900473ffffffffffffffffffffffffffffffffffffffff1673ffffffffffffffffffffffffffffffffffffffff1614159050919050565b600033905090565b816004600083815260200190815260200160002060006101000a81548173ffffffffffffffffffffffffffffffffffffffff021916908373ffffffffffffffffffffffffffffffffffffffff160217905550808273ffffffffffffffffffffffffffffffffffffffff166113cb836108ac565b73ffffffffffffffffffffffffffffffffffffffff167f8c5be1e5ebec7d5bd14f71427d1e84f3dd0314c0f7b2291e5b200ac8c7c3b92560405160405180910390a45050565b600061141c826112e4565b61145b576040517f08c379a000000000000000000000000000000000000000000000000000000000815260040161145290612d72565b60405180910390fd5b6000611466836108ac565b90508073ffffffffffffffffffffffffffffffffffffffff168473ffffffffffffffffffffffffffffffffffffffff1614806114d557508373ffffffffffffffffffffffffffffffffffffffff166114bd846105f9565b73ffffffffffffffffffffffffffffffffffffffff16145b806114e657506114e581856110b7565b5b91505092915050565b8273ffffffffffffffffffffffffffffffffffffffff1661150f826108ac565b73ffffffffffffffffffffffffffffffffffffffff1614611565576040517f08c379a000000000000000000000000000000000000000000000000000000000815260040161155c90612e72565b60405180910390fd5b600073ffffffffffffffffffffffffffffffffffffffff168273ffffffffffffffffffffffffffffffffffffffff1614156115d5576040517f08c379a00000000000000000000000000000000000000000000000000000000081526004016115cc90612d32565b60405180910390fd5b6115e0838383611c37565b6115eb600082611358565b6001600360008573ffffffffffffffffffffffffffffffffffffffff1673ffffffffffffffffffffffffffffffffffffffff168152602001908152602001600020600082825461163b9190613068565b925050819055506001600360008473ffffffffffffffffffffffffffffffffffffffff1673ffffffffffffffffffffffffffffffffffffffff16815260200190815260200160002060008282546116929190612fe1565b92505081905550816002600083815260200190815260200160002060006101000a81548173ffffffffffffffffffffffffffffffffffffffff021916908373ffffffffffffffffffffffffffffffffffffffff160217905550808273ffffffffffffffffffffffffffffffffffffffff168473ffffffffffffffffffffffffffffffffffffffff167fddf252ad1be2c89b69c2b068fc378daa952ba7f163c4a11628f55a4df523b3ef60405160405180910390a4505050565b611765828260405180602001604052806000815250611c3c565b5050565b6000600660009054906101000a900473ffffffffffffffffffffffffffffffffffffffff16905081600660006101000a81548173ffffffffffffffffffffffffffffffffffffffff021916908373ffffffffffffffffffffffffffffffffffffffff1602179055508173ffffffffffffffffffffffffffffffffffffffff168173ffffffffffffffffffffffffffffffffffffffff167f8be0079c531659141344cd1fd0a4f28419497f9722a3daafe3b4186f6b6457e060405160405180910390a35050565b8173ffffffffffffffffffffffffffffffffffffffff168373ffffffffffffffffffffffffffffffffffffffff16141561189e576040517f08c379a000000000000000000000000000000000000000000000000000000000815260040161189590612d52565b60405180910390fd5b80600560008573ffffffffffffffffffffffffffffffffffffffff1673ffffffffffffffffffffffffffffffffffffffff16815260200190815260200160002060008473ffffffffffffffffffffffffffffffffffffffff1673ffffffffffffffffffffffffffffffffffffffff16815260200190815260200160002060006101000a81548160ff0219169083151502179055508173ffffffffffffffffffffffffffffffffffffffff168373ffffffffffffffffffffffffffffffffffffffff167f17307eab39ab6107e8899845ad3d59bd9653f200f220920489ca2b5937696c318360405161198f9190612c75565b60405180910390a3505050565b6119a78484846114ef565b6119b384848484611c97565b6119f2576040517f08c379a00000000000000000000000000000000000000000000000000000000081526004016119e990612cd2565b60405180910390fd5b50505050565b606060088054611a0790613152565b80601f0160208091040260200160405190810160405280929190818152602001828054611a3390613152565b8015611a805780601f10611a5557610100808354040283529160200191611a80565b820191906000526020600020905b815481529060010190602001808311611a6357829003601f168201915b5050505050905090565b60606000821415611ad2576040518060400160405280600181526020017f30000000000000000000000000000000000000000000000000000000000000008152509050611c32565b600082905060005b60008214611b04578080611aed90613184565b915050600a82611afd9190613037565b9150611ada565b60008167ffffffffffffffff811115611b46577f4e487b7100000000000000000000000000000000000000000000000000000000600052604160045260246000fd5b6040519080825280601f01601f191660200182016040528015611b785781602001600182028036833780820191505090505b5090505b60008514611c2b57600182611b919190613068565b9150600a85611ba091906131fb565b6030611bac9190612fe1565b60f81b818381518110611be8577f4e487b7100000000000000000000000000000000000000000000000000000000600052603260045260246000fd5b60200101907effffffffffffffffffffffffffffffffffffffffffffffffffffffffffffff1916908160001a905350600a85611c249190613037565b9450611b7c565b8093505050505b919050565b505050565b611c468383611e2e565b611c536000848484611c97565b611c92576040517f08c379a0000000000000000000000000000000000000000000000000000000008152600401611c8990612cd2565b60405180910390fd5b505050565b6000611cb88473ffffffffffffffffffffffffffffffffffffffff16611267565b15611e21578373ffffffffffffffffffffffffffffffffffffffff1663150b7a02611ce1611350565b8786866040518563ffffffff1660e01b8152600401611d039493929190612c29565b602060405180830381600087803b158015611d1d57600080fd5b505af1925050508015611d4e57506040513d601f19601f82011682018060405250810190611d4b91906123a8565b60015b611dd1573d8060008114611d7e576040519150601f19603f3d011682016040523d82523d6000602084013e611d83565b606091505b50600081511415611dc9576040517f08c379a0000000000000000000000000000000000000000000000000000000008152600401611dc090612cd2565b60405180910390fd5b805181602001fd5b63150b7a0260e01b7bffffffffffffffffffffffffffffffffffffffffffffffffffffffff1916817bffffffffffffffffffffffffffffffffffffffffffffffffffffffff191614915050611e26565b600190505b949350505050565b600073ffffffffffffffffffffffffffffffffffffffff168273ffffffffffffffffffffffffffffffffffffffff161415611e9e576040517f08c379a0000000000000000000000000000000000000000000000000000000008152600401611e9590612e12565b60405180910390fd5b611ea7816112e4565b15611ee7576040517f08c379a0000000000000000000000000000000000000000000000000000000008152600401611ede90612d12565b60405180910390fd5b611ef360008383611c37565b6001600360008473ffffffffffffffffffffffffffffffffffffffff1673ffffffffffffffffffffffffffffffffffffffff1681526020019081526020016000206000828254611f439190612fe1565b92505081905550816002600083815260200190815260200160002060006101000a81548173ffffffffffffffffffffffffffffffffffffffff021916908373ffffffffffffffffffffffffffffffffffffffff160217905550808273ffffffffffffffffffffffffffffffffffffffff16600073ffffffffffffffffffffffffffffffffffffffff167fddf252ad1be2c89b69c2b068fc378daa952ba7f163c4a11628f55a4df523b3ef60405160405180910390a45050565b82805461200890613152565b90600052602060002090601f01602090048101928261202a5760008555612071565b82601f1061204357805160ff1916838001178555612071565b82800160010185558215612071579182015b82811115612070578251825591602001919060010190612055565b5b50905061207e9190612082565b5090565b5b8082111561209b576000816000905550600101612083565b5090565b60006120b26120ad84612f3e565b612f0d565b9050828152602081018484840111156120ca57600080fd5b6120d5848285613110565b509392505050565b60006120f06120eb84612f6e565b612f0d565b90508281526020810184848401111561210857600080fd5b612113848285613110565b509392505050565b60008135905061212a81613306565b92915050565b60008135905061213f8161331d565b92915050565b60008135905061215481613334565b92915050565b60008151905061216981613334565b92915050565b600082601f83011261218057600080fd5b813561219084826020860161209f565b91505092915050565b600082601f8301126121aa57600080fd5b81356121ba8482602086016120dd565b91505092915050565b6000813590506121d28161334b565b92915050565b6000602082840312156121ea57600080fd5b60006121f88482850161211b565b91505092915050565b6000806040838503121561221457600080fd5b60006122228582860161211b565b92505060206122338582860161211b565b9150509250929050565b60008060006060848603121561225257600080fd5b60006122608682870161211b565b93505060206122718682870161211b565b9250506040612282868287016121c3565b9150509250925092565b600080600080608085870312156122a257600080fd5b60006122b08782880161211b565b94505060206122c18782880161211b565b93505060406122d2878288016121c3565b925050606085013567ffffffffffffffff8111156122ef57600080fd5b6122fb8782880161216f565b91505092959194509250565b6000806040838503121561231a57600080fd5b60006123288582860161211b565b925050602061233985828601612130565b9150509250929050565b6000806040838503121561235657600080fd5b60006123648582860161211b565b9250506020612375858286016121c3565b9150509250929050565b60006020828403121561239157600080fd5b600061239f84828501612145565b91505092915050565b6000602082840312156123ba57600080fd5b60006123c88482850161215a565b91505092915050565b6000602082840312156123e357600080fd5b600082013567ffffffffffffffff8111156123fd57600080fd5b61240984828501612199565b91505092915050565b60006020828403121561242457600080fd5b6000612432848285016121c3565b91505092915050565b6124448161309c565b82525050565b61245b6124568261309c565b6131cd565b82525050565b61246a816130ae565b82525050565b600061247b82612f9e565b6124858185612fb4565b935061249581856020860161311f565b61249e816132e8565b840191505092915050565b60006124b482612fa9565b6124be8185612fc5565b93506124ce81856020860161311f565b6124d7816132e8565b840191505092915050565b60006124ed82612fa9565b6124f78185612fd6565b935061250781856020860161311f565b80840191505092915050565b6000612520601b83612fc5565b91507f546f6b656e206275726e206973206e6f7420737570706f7274656400000000006000830152602082019050919050565b6000612560603283612fc5565b91507f4552433732313a207472616e7366657220746f206e6f6e20455243373231526560008301527f63656976657220696d706c656d656e74657200000000000000000000000000006020830152604082019050919050565b60006125c6602683612fc5565b91507f4f776e61626c653a206e6577206f776e657220697320746865207a65726f206160008301527f64647265737300000000000000000000000000000000000000000000000000006020830152604082019050919050565b600061262c601c83612fc5565b91507f4552433732313a20746f6b656e20616c7265616479206d696e746564000000006000830152602082019050919050565b600061266c602483612fc5565b91507f4552433732313a207472616e7366657220746f20746865207a65726f2061646460008301527f72657373000000000000000000000000000000000000000000000000000000006020830152604082019050919050565b60006126d2601983612fc5565b91507f4552433732313a20617070726f766520746f2063616c6c6572000000000000006000830152602082019050919050565b6000612712602c83612fc5565b91507f4552433732313a206f70657261746f7220717565727920666f72206e6f6e657860008301527f697374656e7420746f6b656e00000000000000000000000000000000000000006020830152604082019050919050565b6000612778603883612fc5565b91507f4552433732313a20617070726f76652063616c6c6572206973206e6f74206f7760008301527f6e6572206e6f7220617070726f76656420666f7220616c6c00000000000000006020830152604082019050919050565b60006127de602a83612fc5565b91507f4552433732313a2062616c616e636520717565727920666f7220746865207a6560008301527f726f2061646472657373000000000000000000000000000000000000000000006020830152604082019050919050565b6000612844602983612fc5565b91507f4552433732313a206f776e657220717565727920666f72206e6f6e657869737460008301527f656e7420746f6b656e00000000000000000000000000000000000000000000006020830152604082019050919050565b60006128aa601e83612fc5565b91507f52657175657374206973206d6f7265207468616e20617661696c61626c6500006000830152602082019050919050565b60006128ea602083612fc5565b91507f4552433732313a206d696e7420746f20746865207a65726f20616464726573736000830152602082019050919050565b600061292a602c83612fc5565b91507f4552433732313a20617070726f76656420717565727920666f72206e6f6e657860008301527f697374656e7420746f6b656e00000000000000000000000000000000000000006020830152604082019050919050565b6000612990602083612fc5565b91507f4f776e61626c653a2063616c6c6572206973206e6f7420746865206f776e65726000830152602082019050919050565b60006129d0602983612fc5565b91507f4552433732313a207472616e73666572206f6620746f6b656e2074686174206960008301527f73206e6f74206f776e00000000000000000000000000000000000000000000006020830152604082019050919050565b6000612a36602f83612fc5565b91507f4552433732314d657461646174613a2055524920717565727920666f72206e6f60008301527f6e6578697374656e7420746f6b656e00000000000000000000000000000000006020830152604082019050919050565b6000612a9c602183612fc5565b91507f4552433732313a20617070726f76616c20746f2063757272656e74206f776e6560008301527f72000000000000000000000000000000000000000000000000000000000000006020830152604082019050919050565b6000612b02603183612fc5565b91507f4552433732313a207472616e736665722063616c6c6572206973206e6f74206f60008301527f776e6572206e6f7220617070726f7665640000000000000000000000000000006020830152604082019050919050565b612b6481613106565b82525050565b612b7b612b7682613106565b6131f1565b82525050565b6000612b8d828561244a565b601482019150612b9d8284612b6a565b6020820191508190509392505050565b6000612bb9828661244a565b601482019150612bc98285612b6a565b602082019150612bd98284612b6a565b602082019150819050949350505050565b6000612bf682856124e2565b9150612c0282846124e2565b91508190509392505050565b6000602082019050612c23600083018461243b565b92915050565b6000608082019050612c3e600083018761243b565b612c4b602083018661243b565b612c586040830185612b5b565b8181036060830152612c6a8184612470565b905095945050505050565b6000602082019050612c8a6000830184612461565b92915050565b60006020820190508181036000830152612caa81846124a9565b905092915050565b60006020820190508181036000830152612ccb81612513565b9050919050565b60006020820190508181036000830152612ceb81612553565b9050919050565b60006020820190508181036000830152612d0b816125b9565b9050919050565b60006020820190508181036000830152612d2b8161261f565b9050919050565b60006020820190508181036000830152612d4b8161265f565b9050919050565b60006020820190508181036000830152612d6b816126c5565b9050919050565b60006020820190508181036000830152612d8b81612705565b9050919050565b60006020820190508181036000830152612dab8161276b565b9050919050565b60006020820190508181036000830152612dcb816127d1565b9050919050565b60006020820190508181036000830152612deb81612837565b9050919050565b60006020820190508181036000830152612e0b8161289d565b9050919050565b60006020820190508181036000830152612e2b816128dd565b9050919050565b60006020820190508181036000830152612e4b8161291d565b9050919050565b60006020820190508181036000830152612e6b81612983565b9050919050565b60006020820190508181036000830152612e8b816129c3565b9050919050565b60006020820190508181036000830152612eab81612a29565b9050919050565b60006020820190508181036000830152612ecb81612a8f565b9050919050565b60006020820190508181036000830152612eeb81612af5565b9050919050565b6000602082019050612f076000830184612b5b565b92915050565b6000604051905081810181811067ffffffffffffffff82111715612f3457612f336132b9565b5b8060405250919050565b600067ffffffffffffffff821115612f5957612f586132b9565b5b601f19601f8301169050602081019050919050565b600067ffffffffffffffff821115612f8957612f886132b9565b5b601f19601f8301169050602081019050919050565b600081519050919050565b600081519050919050565b600082825260208201905092915050565b600082825260208201905092915050565b600081905092915050565b6000612fec82613106565b9150612ff783613106565b9250827fffffffffffffffffffffffffffffffffffffffffffffffffffffffffffffffff0382111561302c5761302b61322c565b5b828201905092915050565b600061304282613106565b915061304d83613106565b92508261305d5761305c61325b565b5b828204905092915050565b600061307382613106565b915061307e83613106565b9250828210156130915761309061322c565b5b828203905092915050565b60006130a7826130e6565b9050919050565b60008115159050919050565b60007fffffffff0000000000000000000000000000000000000000000000000000000082169050919050565b600073ffffffffffffffffffffffffffffffffffffffff82169050919050565b6000819050919050565b82818337600083830152505050565b60005b8381101561313d578082015181840152602081019050613122565b8381111561314c576000848401525b50505050565b6000600282049050600182168061316a57607f821691505b6020821081141561317e5761317d61328a565b5b50919050565b600061318f82613106565b91507fffffffffffffffffffffffffffffffffffffffffffffffffffffffffffffffff8214156131c2576131c161322c565b5b600182019050919050565b60006131d8826131df565b9050919050565b60006131ea826132f9565b9050919050565b6000819050919050565b600061320682613106565b915061321183613106565b9250826132215761322061325b565b5b828206905092915050565b7f4e487b7100000000000000000000000000000000000000000000000000000000600052601160045260246000fd5b7f4e487b7100000000000000000000000000000000000000000000000000000000600052601260045260246000fd5b7f4e487b7100000000000000000000000000000000000000000000000000000000600052602260045260246000fd5b7f4e487b7100000000000000000000000000000000000000000000000000000000600052604160045260246000fd5b6000601f19601f8301169050919050565b60008160601b9050919050565b61330f8161309c565b811461331a57600080fd5b50565b613326816130ae565b811461333157600080fd5b50565b61333d816130ba565b811461334857600080fd5b50565b61335481613106565b811461335f57600080fd5b5056fea2646970667358221220ca73e6a8c6977798278e9d379de0a9ca3965d4775a8c47297e586a8df71df76364736f6c63430008000033697066733a2f2f516d61735a6942396e7755314e77444456503131434866714c4a516e50386b675563675a37593176344159583638",
  "linkReferences": {},
  "deployedLinkReferences": {}
}